S0190000736E616B6566696E616C70726F6A6563742E73726563F8
S113000045C0000062C0000060C000005EC0000087
S11300105CC000005AC0000058C0000056C0000078
S113002054C0000052C0000050C000004EC0000088
S11300304CC00000CBC4000048C0000046C0000013
S113004044C0000042C0000040C000003EC00000A8
S11300503CC000003AC0000038C0000036C00000B8
S113006034C0000032C0000030C000002EC00000C8
S11300702CC000002AC0000028C0000026C00000D8
S113008024C0000022C0000020C0000011241FBEB4
S1130090CFEFD0E4DEBFCDBF11E0A0E0B1E0E4E5F6
S11300A0F4E200E00BBF02C007900D92A239B10741
S11300B0D9F722E0A2E9B1E001C01D92A033B20752
S11300C0E1F70E94150C0C9428129ACFFC010FB68C
S11300D0F89460912C0270912D0280912E029091DF
S11300E02F020FBE309721F0608371838283938344
S11300F00895CF93DF93CDB7DEB781E01AD0000027
S1130100DF91CF910895CF93DF93CDB7DEB784E627
S113011090E0D5D088E30DD086E00BD08FE009D0F5
S113012081E007D08AE090E0CAD00000DF91CF914F
S11301300895CF93DF931F92CDB7DEB7898382E210
S113014090E022E230E0F90120812E7FFC0120833F
S11301508BE290E02981FC01208382E290E022E29C
S113016030E0F90120812260FC012083000082E25A
S113017090E022E230E0F90120812D7FFC01208310
S113018082E090E09CD000000F90DF91CF91089521
S1130190CF93DF931F92CDB7DEB7898382E290E0DD
S11301A022E230E0F90120812160FC0120838BE20E
S11301B090E02981FC01208382E290E022E230E099
S11301C0F90120812260FC012083000082E290E09A
S11301D022E230E0F90120812D7FFC01208381E0BF
S11301E090E06DD000000F90DF91CF910895CF93F0
S11301F0DF9300D000D0CDB7DEB78A837C836B83D6
S113020078DF8A8189830FC0898191E0980F99836F
S113021041D08B819C819C012F5F3F4F3C832B837A
S1130220FC018081B5DF8B819C81FC018081882366
S113023059F700000F900F900F900F90DF91CF911E
S11302400895CF93DF9300D000D0CDB7DEB78A8373
S11302507C836B838A8189830FC0898191E0980FA5
S1130260998318D08B819C819C012F5F3F4F3C83E5
S11302702B83FC0180818CDF8B819C81FC0180813C
S1130280882359F700000F900F900F900F90DF9183
S1130290CF910895CF93DF931F92CDB7DEB78983B3
S11302A08981813120F48981815843DF03C08981A8
S11302B081553FDF00000F90DF91CF910895CF93D8
S11302C0DF9300D000D000D0CDB7DEB79E838D83FE
S11302D01A82198213C01C821B8206C000008B8103
S11302E09C8101969C838B838B819C818730934076
S11302F0ACF389819A8101969A83898329813A8111
S11303008D819E812817390734F3000026960FB695
S1130310F894DEBF0FBECDBFDF91CF910895CF9388
S1130320DF9300D000D0CDB7DEB78A837C836B83A4
S11303308A818830D0F48A81882F90E00896880FCB
S1130340880F880FF6DE19820DC08981882F90E00E
S11303502B813C81820F931FFC01808119DF8981ED
S11303608F5F89838981883080F380E8E2DE000032
S11303700F900F900F900F90DF91CF910895CF932E
S1130380DF9300D01F92CDB7DEB789836A834B8396
S11303908B81882371F08A81282F30E081E090E0FE
S11303A002C0880F991F2A95E2F7982F8981892B1B
S11303B00EC08A81282F30E081E090E002C0880FCF
S11303C0991F2A95E2F7982F9095898189230F9098
S11303D00F900F90DF91CF910895CF93DF93CDB716
S11303E0DEB78AE790E02AE730E0F9012081206E49
S11303F0FC0120830000DF91CF910895CF93DF9318
S11304001F92CDB7DEB789838CE790E0298128302D
S113041028F02CE730E0F901208101C02981FC019A
S113042020831092AA0106C000008091AA018F5F68
S11304308093AA018091AA018F30B0F300000F903D
S1130440DF91CF910895CF93DF93CDB7DEB781E8E5
S113045090E02BE0FC01208388E890E02DE730E079
S1130460FC01318320838FE690E022E0FC012083AD
S113047084E890E0FC011182108280910A0190913D
S11304800B01A0910C01B0910D0180939201909306
S11304909301A0939401B09395018FE590E02FE52B
S11304A030E0F90120812068FC0120830000DF9105
S11304B0CF910895CF93DF9300D000D0CDB7DEB7AE
S11304C069837A838B839C8389819A81AB81BC8184
S11304D080930A0190930B01A0930C01B0930D013A
S11304E080910A0190910B01A0910C01B0910D0132
S11304F08093920190939301A0939401B0939501FA
S113050000000F900F900F900F90DF91CF910895FE
S11305100F931F93CF93DF9300D01F92CDB7DEB715
S11305201982A4C08981282F30E0C901880F991F3E
S1130530820F931F880F991F880F991F82549E4F13
S1130540FC0120813181428153818981682F70E0CF
S1130550CB01880F991F860F971F880F991F880F4B
S1130560991F86549E4FFC0180819181A281B381A1
S1130570281739074A075B0708F449C08981082FFF
S113058010E08981282F30E0C901880F991F820F5C
S1130590931F880F991F880F991F8E539E4FFC013C
S11305A0408151818981282F30E0C901880F991F2A
S11305B0820F931F880F991F880F991F88549E4F8D
S11305C0FC0180819181FA0109959C01C801880F81
S11305D0991F800F911F880F991F880F991F8854A6
S11305E09E4FFC01318320838981282F30E0C9018B
S11305F0880F991F820F931F880F991F880F991FC7
S113060082549E4FFC0110821182128213828981CE
S1130610682F70E08981282F30E0C901880F991F65
S1130620820F931F880F991F880F991F82549E4F22
S1130630FC0180819181A281B3819C01AD012F5F76
S11306403F4F4F4F5F4FCB01880F991F860F971F66
S1130650880F991F880F991F82549E4FFC01208395
S113066031834283538389818F5F898384E09981B5
S1130670981708F457CF1B821A8286E0BFDE88E7FA
S113068090E0FC01808191819B838A838A819B8194
S1130690883C910528F18A819B818C32914000F538
S11306A08091D2019091D301A091D401B091D50150
S11306B08C329140A105B10599F08CE291E0A0E063
S11306C0B0E08093D2019093D301A093D401B0936E
S11306D0D50181E090E09093AC018093AB0145C1DA
S11306E08A819B818436910500F58091D201909195
S11306F0D301A091D401B091D50184369105A1050F
S1130700B10599F084E690E0A0E0B0E08093D201D6
S11307109093D301A093D401B093D50181E090E0EC
S11307209093AC018093AB0120C18A819B81843674
S1130730910528F18A819B81883C910500F580917F
S1130740D2019091D301A091D401B091D501883CFC
S11307509105A105B10599F088EC90E0A0E0B0E026
S11307608093D2019093D301A093D401B093D50187
S113077081E090E09093AC018093AB01F6C08A8154
S11307809B818C32914028F18A819B8180399140F0
S113079000F58091D2019091D301A091D401B09140
S11307A0D50180399140A105B10599F080E991E026
S11307B0A0E0B0E08093D2019093D301A093D40140
S11307C0B093D50181E090E09093AC018093AB01AC
S11307D0CCC08A819B818039914028F18A819B8198
S11307E0843F914000F58091D2019091D301A09172
S11307F0D401B091D501843F9140A105B10599F090
S113080084EF91E0A0E0B0E08093D2019093D30113
S1130810A093D401B093D50181E090E09093AC0112
S11308208093AB01A2C08A819B81843F914028F1CF
S11308308A819B818835924000F58091D201909104
S1130840D301A091D401B091D50188359240A1057E
S1130850B10599F088E592E0A0E0B0E08093D20180
S11308609093D301A093D401B093D50181E090E09B
S11308709093AC018093AB0178C08A819B818835C9
S1130880924028F18A819B818C3B924000F58091B3
S1130890D2019091D301A091D401B091D5018C3BA8
S11308A09240A105B10599F08CEB92E0A0E0B0E094
S11308B08093D2019093D301A093D401B093D50136
S11308C081E090E09093AC018093AB014EC08A81AB
S11308D09B818C3B924028F18A819B81803293409A
S11308E000F58091D2019091D301A091D401B091EF
S11308F0D50180329340A105B10599F080E293E0DF
S1130900A0E0B0E08093D2019093D301A093D401EE
S1130910B093D50181E090E09093AC018093AB015A
S113092024C08A819B8180329340F8F08091D20167
S11309309091D301A091D401B091D5018438934012
S1130940A105B10591F084E893E0A0E0B0E08093C4
S1130950D2019093D301A093D401B093D50181E047
S113096090E09093AC018093AB018091D20190917F
S1130970D301A091D401B091D50124E630E040E048
S113098050E0BC01CD010E94640DDA01C9018093DD
S1130990A7018091AB019091AC01892B71F0109269
S11309A0A8011092D6011092D7011092D80110928A
S11309B0D9011092AC011092AB0100000F900F907E
S11309C00F90DF91CF911F910F9108951F920F9275
S11309D000905F000F92112400905B000F922F9300
S11309E03F934F935F936F937F938F939F93AF93B3
S11309F0BF93EF93FF93CF93DF93CDB7DEB780918F
S1130A00920190919301A0919401B0919501019765
S1130A10A109B1098093920190939301A093940149
S1130A20B09395018091920190919301A0919401CA
S1130A30B0919501892B8A2B8B2B89F469DD8091E8
S1130A400A0190910B01A0910C01B0910D018093CA
S1130A50920190939301A0939401B09395010000A7
S1130A60DF91CF91FF91EF91BF91AF919F918F91C2
S1130A707F916F915F914F913F912F910F900092D1
S1130A805B000F9000925F000F901F901895CF931A
S1130A90DF9300D0CDB7DEB79A83898389819A81A9
S1130AA08130910509F471C08230910509F47EC04A
S1130AB0892B09F09FC010929A011092970180E24D
S1130AC090E0FC018081882F90E088709927892B21
S1130AD0D1F481E080939A016FE071E081E087DBDB
S1130AE068E171E081E1ADDB1092AD0110929601F5
S1130AF082E090E09093AF018093AE0181E090E0BA
S1130B009A83898333C08091AD01882379F5F1DA22
S1130B1064E271E081E195DB64E371E081E091DB03
S1130B2080E090E00E94D711882F90E0292F2F9326
S1130B308F9381E491E0892F8F9381E491E08F93E7
S1130B4080EB91E0892F8F9380EB91E08F930E944B
S1130B50FC0E0F900F900F900F900F900F9060EB82
S1130B6071E08DE06EDB81E08093AD018091A8019E
S1130B70882309F03AC080E28DDB8091A701805D73
S1130B8007DB81E08093A80130C080E290E0FC01A3
S1130B908081882F90E088709927892B41F180917A
S1130BA0AE019091AF019A83898324C080E290E0E2
S1130BB0FC018081882F90E088709927892BC9F4E3
S1130BC098DA64E471E081E012DB81E080939701BC
S1130BD010929A011092A8011092AF011092AE01E6
S1130BE081E090E09A83898304C0000003C0000080
S1130BF001C0000089819A810F900F90DF91CF91FD
S1130C000895CF93DF9300D0CDB7DEB79A8389835D
S1130C1089819A81009719F00197B9F0CBC080912E
S1130C209A01882309F4C3C0109298011092990183
S1130C301092B3011092B2011092B5011092B40156
S1130C4081E090E09A838983B5C0809197018823DD
S1130C5019F01A821982AEC08091A001882309F08C
S1130C60A8C084E0CBDB88E790E0FC01808191811F
S1130C709093B3018093B20185E0C0DB88E790E0F4
S1130C80FC01808191819093B5018093B4018CE142
S1130C9001DB8091B2019091B301843D9105D0F4C0
S1130CA08091B4019091B501925081309F4F94F09E
S1130CB08091B4019091B50192508F3F910509F054
S1130CC04CF48CE68093980181E080930E0181E0DE
S1130CD05FDA62C08091B2019091B3018D3293408A
S1130CE0D0F08091B4019091B501925081309F4F22
S1130CF094F08091B4019091B50192508F3F910589
S1130D0009F04CF482E78093980182E080930E010D
S1130D1082E03EDA41C08091B4019091B501843DF6
S1130D209105D0F48091B2019091B3019250813039
S1130D309F4F94F08091B2019091B30192508F3FF4
S1130D40910509F04CF485E78093980183E0809342
S1130D500E0183E01DDA20C08091B4019091B501A9
S1130D608D329340C8F08091B2019091B3019250BA
S1130D7081309F4F8CF08091B2019091B3019250D9
S1130D808F3F910509F044F484E68093980184E050
S1130D9080930E0184E0FCD980919901882321F489
S1130DA080919801809399018DE174DA03C0000069
S1130DB001C0000089819A810F900F90DF91CF913B
S1130DC00895CF93DF9300D000D0CDB7DEB79C83D6
S1130DD08B838B819C819A83898324C089819A81A6
S1130DE0FC0182819381892BB1F089819A81FC0174
S1130DF082819381FC01208189819A81FC01208375
S1130E0089819A81FC0182819381FC0121818981FC
S1130E109A81FC01218389819A81FC0182819381D9
S1130E209A83898389819A81FC0182819381892BA8
S1130E30A9F689819A810F900F900F900F90DF91FE
S1130E40CF910895CF93DF9300D000D0CDB7DEB714
S1130E509C838B838B819C819A83898307C089813E
S1130E609A81FC01828193819A83898389819A8101
S1130E70FC0182819381892B91F789819A810F905A
S1130E800F900F900F90DF91CF910895CF93DF9340
S1130E90CDB7DEB72F970FB6F894DEBF0FBECDBF28
S1130EA09D878C877F876E8719821A821B8219829D
S1130EB01DC01A8215C08981282F30E08A81882FAD
S1130EC090E0220F331F220F331F220F331F820F94
S1130ED0931F88519E4FFC0110828A818F5F8A8301
S1130EE08A81883040F389818F5F89838981883042
S1130EF000F38C859D859D838C831E828FEF8F8369
S1130F003BC08C819D81FC018181282F30E08C8144
S1130F109D81FC018081882F90E04C815D81FA01E4
S1130F204181642F70E04C815D81FA014081442F3E
S1130F3050E0660F771F660F771F660F771F460F07
S1130F40571F48515E4FFA0140814F5F220F331FF4
S1130F50220F331F220F331F820F931F88519E4F7E
S1130F60FC0140838C819D81FC01828193819D835E
S1130F708C838B818F5F8B838C819D81892B09F678
S1130F8080919D0190919E01FC018081282F30E089
S1130F908091A1019091A2012817390709F085C019
S1130FA080919D0190919E01FC018181282F30E068
S1130FB08091A3019091A4012817390709F075C005
S1130FC084E090E0A3D59987888780919D019091D2
S1130FD09E01FC01208188859985FC0120838091F4
S1130FE09D0190919E01FC01218188859985FC01D8
S1130FF0218388859985FC01138212828E859F85C1
S113100028853985FC01338322838E859F85FC01E5
S1131010828193819F878E8781E080939F01809155
S113102096018F5F8093960180919601882F90E0BE
S1131030292F2F938F9381E491E0892F8F9381E45B
S113104091E08F93CE010A96292F2F938F93D4D6B4
S11310500F900F900F900F900F900F90CE010A9663
S1131060BC0188E0EED880E090E00E94D711982F70
S113107080919601981738F480919601682F80E04A
S113108090E00E94DF11809196018F3361F51092F8
S113109096016EE471E081E0AAD866E571E081E131
S11310A0D0D881E08093A0011EC08E859F85FC016D
S11310B08181282F30E08E859F85FC018081882FD7
S11310C090E0220F331F220F331F220F331F820F92
S11310D0931F88519E4FFC018081823028F081E06B
S11310E08093A9010BC000008F81282F30E08E81EE
S11310F0882F90E048EE51E0B90109D02F960FB641
S1131100F894DEBF0FBECDBFDF91CF910895CF938A
S1131110DF93CDB7DEB727970FB6F894DEBF0FBEC7
S1131120CDBF8C836D835F834E83198280919F0131
S1131130882309F061C080919D0190919E01FC017A
S11311408181882F90E0880F991F880F991F880F3D
S1131150991F2E813F81280F391F80919D01909105
S11311609E01FC018081882F90E0820F931F21E073
S1131170FC012083198226C08091B601882F90E05B
S1131180880F991F880F991F880F991F2E813F81FF
S1131190280F391F8981882F90E0820F931FFC014B
S11311A08081813061F48091B60141E0682F8C81A7
S11311B0E6D88C8340E069818D81E1D88D83898173
S11311C08F5F898389818830B8F288E290E02C812E
S11311D0FC01208385E290E02D81FC012083809135
S11311E0B6018F5F8093B6018091B601883008F410
S11311F067C01092B60164C010929F01EFD587704A
S11312009078992324F40197886F9F6F01968A83BD
S1131210E5D587709078992324F40197886F9F6FA0
S113122001968B8314C0DAD587709078992324F4BF
S11312300197886F9F6F01968A83D0D587709078C5
S1131240992324F40197886F9F6F01968B838B8178
S1131250882F90E0880F991F880F991F880F991F76
S11312602E813F81280F391F8A81882F90E0820FB9
S1131270931FFC0180818823B1F680919D01909198
S11312809E012A81FC01208380919D0190919E0101
S11312902B81FC01218341E06B818C8170D88C838C
S11312A040E06A818D816BD88D8388E290E02C8147
S11312B0FC01208385E290E02D81FC01208301C0A4
S11312C0000027960FB6F894DEBF0FBECDBFDF91A6
S11312D0CF9108950F931F93CF93DF93CDB7DEB7CC
S11312E02C970FB6F894DEBF0FBECDBF9C878B87BB
S11312F01D828FEF8E838B859C858130910509F447
S113130084C08230910509F4F3C1892B09F041C2EC
S113131080919A01882309F435C21092A90184E0CE
S113132090E0F4D390939C0180939B0180919B0166
S113133090919C0125E0FC01208380919B01909178
S11313409C0123E0FC01218380919B0190919C01ED
S1131350FC011382128280919B0190919C019093D5
S1131360A6018093A50182E090E0D0D390939E01E2
S113137080939D0180919D0190919E0122E0FC014A
S1131380208380919D0190919E0123E0FC012183A3
S113139010929F0180919B0190919C01FC0181819D
S11313A041E0682F8D810E94BF018D8380919B0154
S11313B090919C01FC01808140E0682F8E810E9405
S11313C0BF018E8308E210E080919D0190919E01FF
S11313D0FC01818141E0682F8D810E94BF01F801E9
S11313E0808305E210E080919D0190919E01FC01B3
S11313F0808140E0682F8E810E94BF01F8018083C4
S113140081E090E09C878B87C4C18091A0018823F0
S113141021F082E090E09C878B878091970188235C
S113142089F180919B0190919C019A8389838981A0
S11314309A81FC018281938198878F830EC0898170
S11314409A81FC018281938198878F8389819A8113
S1131450F5D38F8198859A83898389819A81892B91
S113146071F710929C0110929B011C861B8688E2E6
S113147090E02FEFFC01208385E290E02FEFFC0148
S1131480208387C180919801882309F47DC18091CC
S11314909B0190919C01D6DC9093A6018093A501B9
S11314A08091A5019091A601FC018081882F90E094
S11314B09093A2018093A1018091A5019091A6012E
S11314C0FC018181882F90E09093A4018093A30173
S11314D0809199018C3661F580919801853769F482
S11314E085E7809399018091A3019091A4010197CC
S11314F09093A4018093A301AAC08091980184369B
S113150069F484E6809399018091A3019091A401E8
S113151001969093A4018093A30199C08091A101A5
S11315209091A20101969093A2018093A1018FC092
S113153080919901823761F580919801853769F42A
S113154085E7809399018091A3019091A40101976B
S11315509093A4018093A3017AC08091980184366A
S113156069F484E6809399018091A3019091A40188
S113157001969093A4018093A30169C08091A10175
S11315809091A20101979093A2018093A1015FC061
S113159080919901853761F5809198018C3669F4C1
S11315A08CE6809399018091A1019091A20101960A
S11315B09093A2018093A1014AC08091980182373F
S11315C069F482E7809399018091A1019091A2012D
S11315D001979093A2018093A10139C08091A30146
S11315E09091A40101979093A4018093A3012FC02B
S11315F080919901843659F5809198018C3669F46B
S11316008CE6809399018091A1019091A2010196A9
S11316109093A2018093A1011AC08091980182370E
S113162069F482E7809399018091A1019091A201CC
S113163001979093A2018093A10109C08091A30115
S11316409091A40101969093A4018093A3018091A9
S1131650A1019091A201089750F48091A301909167
S1131660A401089720F48091A901813041F481E01C
S11316708093A00182E090E09C878B878AC0809150
S11316809D0190919E01FC018081282F30E0809182
S1131690A1019091A2012817390781F480919D013D
S11316A090919E01FC018181282F30E08091A3015B
S11316B09091A4012817390709F468C080919B010F
S11316C090919C017EDB8091A5019091A6012091CF
S11316D0A1013091A201FC0120838091A501909188
S11316E0A6012091A3013091A401FC0121834EC0E5
S11316F08091B701882369F467E671E081E00E9474
S1131700F70066E571E081E10E94210181E08093A8
S1131710B701809197018823D9F11092A00110920A
S1131720B70180919B0190919C019C838B838B8159
S11317309C81FC01828193819A8789870EC08B8169
S11317409C81FC01828193819A8789878B819C810A
S113175075D289859A859C838B838B819C81892B07
S113176071F710929C0110929B011C861B8688E2E3
S113177090E02FEFFC01208385E290E02FEFFC0145
S1131780208307C0000005C0000003C0000001C0A2
S113179000008B859C852C960FB6F894DEBF0FBE97
S11317A0CDBFDF91CF911F910F910895CF93DF9318
S11317B000D0CDB7DEB79A83898389819A81009757
S11317C019F0019751F02AC080919A01882329F1D8
S11317D081E090E09A83898321C0809197018823D6
S11317E019F01A8219821AC08091A001882351F03D
S11317F088E290E02FEFFC01208385E290E0FC0179
S113180010820CC02091A5013091A60180919B010A
S113181090919C01B9013ADB01C0000089819A8151
S11318200F900F90DF91CF910895CF93DF9300D065
S11318301F92CDB7DEB71A82198284E290E02FEFAF
S1131840FC01208385E290E0FC01108287E290E0B5
S11318502FEFFC01208388E290E0FC0110828AE2F1
S113186090E02FEFFC0120838BE290E0FC011082DA
S113187081E290E027E0FC01208382E290E028E00E
S1131880FC0120831B828B81282F30E0C901880F43
S1131890991F820F931F880F991F880F991F8854CF
S11318A09E4FFC01118210828B81282F30E0C901E8
S11318B0880F991F820F931F880F991F880F991FF4
S11318C09C0126543E4F8CE291E0A0E0B0E0F90187
S11318D080839183A283B3838B81282F30E0C90155
S11318E0880F991F820F931F880F991F880F991FC4
S11318F08E539E4F27E435E0FC01318320838B8196
S11319008F5F8B838B81282F30E0C901880F991F4B
S1131910820F931F880F991F880F991F88549E4F19
S1131920FC01118210828B81282F30E0C901880FBD
S1131930991F820F931F880F991F880F991F9C016D
S113194026543E4F84E690E0A0E0B0E0F9018083A5
S11319509183A283B3838B81282F30E0C901880F40
S1131960991F820F931F880F991F880F991F8E53F9
S11319709E4F21E036E0FC01318320838B818F5F11
S11319808B838B81282F30E0C901880F991F820F28
S1131990931F880F991F880F991F88549E4FFC012D
S11319A0118210828B81282F30E0C901880F991F82
S11319B0820F931F880F991F880F991F9C0126542B
S11319C03E4F84E690E0A0E0B0E0F901808391838B
S11319D0A283B3838B81282F30E0C901880F991F1C
S11319E0820F931F880F991F880F991F8E539E4F44
S11319F02AE639E0FC01318320838B818F5F8B835E
S1131A008B81282F30E0C901880F991F820F931F03
S1131A10880F991F880F991F88549E4FFC011182CB
S1131A2010828B81282F30E0C901880F991F820F03
S1131A30931F880F991F880F991F9C0126543E4FAE
S1131A4081E090E0A0E0B0E0F90180839183A2837B
S1131A50B3838B81282F30E0C901880F991F820F2F
S1131A60931F880F991F880F991F8E539E4F26ED41
S1131A703BE0FC01318320830E9483000E94ED013E
S1131A8061E871E081E00E948F0169E871E082E021
S1131A900E948F0161E771E083E00E948F0169E792
S1131AA071E084E00E948F0180E090E00E94660073
S1131AB0DC01CB0196D161E070E080E090E00E940F
S1131AC05A020E942302FFCFA1E21A2EAA1BBB1BBB
S1131AD0FD010DC0AA1FBB1FEE1FFF1FA217B307F6
S1131AE0E407F50720F0A21BB30BE40BF50B661F0C
S1131AF0771F881F991F1A9469F7609570958095D0
S1131B0090959B01AC01BD01CF0108950F931F93E4
S1131B10CF93DF938230910510F482E090E0E0915E
S1131B202A02F0912B0220E030E0A0E0B0E03097F0
S1131B3019F1408151810281138148175907C8F076
S1131B408417950769F4109731F012960C93129745
S1131B5013961C9327C000932A0210932B0222C0D1
S1131B602115310519F04217530718F49A01BD01E4
S1131B70EF01DF01F801DBCF21153105F9F0281B56
S1131B80390B2430310580F48A819B8161157105FC
S1131B9021F0FB019383828304C090932B028093F2
S1131BA02A02FE01329644C0FE01E20FF31F819324
S1131BB0919322503109398328833AC02091280215
S1131BC030912902232B41F4209102013091030129
S1131BD030932902209328022091000130910101C1
S1131BE02115310541F42DB73EB7409104015091C0
S1131BF00501241B350BE0912802F0912902E2171C
S1131C00F307A0F42E1B3F0B2817390778F0AC011B
S1131C104E5F5F4F2417350748F04E0F5F1F5093F8
S1131C202902409328028193919302C0E0E0F0E0FE
S1131C30CF01DF91CF911F910F910895CF93DF933F
S1131C40009709F481C0FC01329713821282A0919B
S1131C502A02B0912B02109781F420813181820FE6
S1131C60931F20912802309129022817390751F532
S1131C70F0932902E093280267C0ED0120E030E0F0
S1131C80CE17DF0740F44A815B819E01411551055F
S1131C90F1F0EA01F5CFD383C28340815181840FEF
S1131CA0951FC817D90759F488819981840F951F06
S1131CB00296918380838A819B81938382832115F9
S1131CC0310529F4F0932B02E0932A023DC0E90187
S1131CD0FB83EA8349915991C40FD51FEC17FD0783
S1131CE061F480819181840F951F0296E9019983A3
S1131CF08883828193819B838A83E0E0F0E012965B
S1131D008D919C911397009719F0FD01DC01F7CF99
S1131D108D919C9111979D012E5F3F4F820F931FD0
S1131D2020912802309129022817390769F4309745
S1131D3029F410922B0210922A0202C013821282FA
S1131D40B0932902A0932802DF91CF9108958F9236
S1131D509F92AF92BF92CF92DF92EF92FF92CF9376
S1131D60DF93EC01688179818A819B81611571051A
S1131D708105910521F464E279ED8BE597E02DE18D
S1131D8033EF41E050E029D349015A019B01AC01F2
S1131D90A7EAB1E43ED36B017C01ACEEB4EFA5013C
S1131DA0940143D3DC01CB018C0D9D1DAE1DBF1DE1
S1131DB0B7FF03C00197A109B04888839983AA8318
S1131DC0BB839F77DF91CF91FF90EF90DF90CF900F
S1131DD0BF90AF909F908F900895B9CF86E091E027
S1131DE0B6CFA0E0B0E08093060190930701A093E2
S1131DF00801B093090108950F931F93CF93DF93C4
S1131E00CDB7DEB72E970FB6F894DEBF0FBECDBFA9
S1131E100D891E8986E08C831A8309838FEF9FE7DF
S1131E209E838D83AE01475E5F4F6F89788DCE01AF
S1131E30019610D0EF81F885E00FF11F10822E96E5
S1131E400FB6F894DEBF0FBECDBFDF91CF911F91C7
S1131E500F9108952F923F924F925F926F927F92CB
S1131E608F929F92AF92BF92CF92DF92EF92FF92A6
S1131E700F931F93CF93DF93CDB7DEB72B970FB696
S1131E80F894DEBF0FBECDBF6C017B018A01FC015B
S1131E9017821682838181FFBFC1CE0101963C0166
S1131EA0F6019381F70193FD859193FF81917F0161
S1131EB0882309F4ADC1853239F493FD859193FFEC
S1131EC081917F01853221F4B60190E0D6D1E8CF2B
S1131ED0912C212C312CFFE1F315D8F08B3279F0C1
S1131EE038F4803279F08332A1F4232D20611DC0AF
S1131EF08D3261F0803369F4232D216016C0832D67
S1131F008260382EE32DE4603E2E2AC0F32DF86063
S1131F101DC037FC2DC020ED280F2A3040F08E3232
S1131F20B9F436FC75C1232D2064322E19C036FE57
S1131F3006C08AE0989E200D1124922E11C0EAE07A
S1131F402E9E200D1124222EF32DF0623F2E08C068
S1131F508C3621F4832D8068382E02C0883641F4F3
S1131F60F70193FD859193FF81917F018111B3CF97
S1131F70982F9F7D9554933028F40C5F1F4F9FE357
S1131F8099830DC0833631F0833771F0833509F0BE
S1131F9055C020C0F801808189830E5F1F4F8824BB
S1131FA08394912C530112C02801F2E04F0E511C6E
S1131FB0F801A080B18036FE03C0692D70E002C034
S1131FC06FEF7FEFC5014ED14C018201F32DFF77F6
S1131FD03F2E15C0280122E0420E511CF801A080BA
S1131FE0B18036FE03C0692D70E002C06FEF7FEF51
S1131FF0C5012DD14C01F32DF0683F2E820133FC35
S113200019C0822D90E088169906A0F4B60180E2EA
S113201090E033D12A94F5CFF50137FC859137FE52
S113202081915F01B60190E028D121102A9421E02A
S1132030821A91088114910479F7E1C0843611F071
S1132040893639F5F80137FE07C0608171818281D4
S113205093810C5F1F4F08C060817181072E000CB3
S1132060880B990B0E5F1F4FF32DFF763F2E97FFC2
S113207009C090958095709561957F4F8F4F9F4FC4
S1132080F0683F2E2AE030E0A30133D1882E861871
S113209044C0853731F4232D2F7EB22E2AE030E060
S11320A025C0932D997FB92E8F36C1F018F4883549
S11320B079F0AEC0803719F0883721F0A9C0E92F34
S11320C0E061BE2EB4FE0DC0FB2DF460BF2E09C02E
S11320D034FE0AC0292F2660B22E06C028E030E064
S11320E005C020E130E002C020E132E0F801B7FE93
S11320F007C060817181828193810C5F1F4F06C08C
S11321006081718180E090E00E5F1F4FA301F1D0E8
S1132110882E8618FB2DFF773F2E36FE0DC0232D0B
S11321202E7FA22E891458F434FE0BC032FC09C051
S1132130832D8E7EA82E05C0B82CA32C03C0B82CEA
S113214001C0B92CA4FE0FC0FE01E80DF11D808171
S1132150803321F49A2D997EA92E09C0A2FE06C0CF
S1132160B394B39404C08A2D867809F0B394A3FC85
S113217010C0A0FE06C0B21480F4280C922C9B1848
S11321800DC0B21458F4B60180E290E076D0B39456
S1132190F8CFB21418F42B1802C0982C212CA4FEEA
S11321A00FC0B60180E390E068D0A2FE16C0A1FC87
S11321B003C088E790E002C088E590E0B6010CC057
S11321C08A2D867851F0A1FE02C08BE201C080E224
S11321D0A7FC8DE2B60190E050D0891430F4B6012A
S11321E080E390E04AD09A94F8CF8A94F301E80D02
S11321F0F11D8081B60190E040D08110F6CF2220FD
S113220009F44ECEB60180E290E037D02A94F7CF9D
S1132210F6018681978102C08FEF9FEF2B960FB650
S1132220F894DEBF0FBECDBFDF91CF911F910F9108
S1132230FF90EF90DF90CF90BF90AF909F908F90E2
S11322407F906F905F904F903F902F900895FC0186
S11322500590615070400110D8F7809590958E0FCD
S11322609F1F0895FC016150704001900110D8F740
S1132270809590958E0F9F1F08950F931F93CF9372
S1132280DF93FB01238121FD03C08FEF9FEF2CC05F
S113229022FF16C046815781248135814217530796
S11322A044F4A081B1819D012F5F3F4F318320838E
S11322B08C93268137812F5F3F4F3783268314C049
S11322C08B01EC01FB010084F185E02D0995892B3C
S11322D0E1F6D80116968D919C9117970196179661
S11322E09C938E931697CE01DF91CF911F910F91FE
S11322F00895FA01AA27283051F1203181F1E89498
S11323006F936E7F6E5F7F4F8F4F9F4FAF4FB1E0E4
S11323103ED0B4E03CD0670F781F891F9A1FA11DDF
S1132320680F791F8A1F911DA11D6A0F711D811DE0
S1132330911DA11D20D009F468943F912AE0269FA5
S113234011243019305D3193DEF6CF010895462F04
S11323504770405D4193B3E00FD0C9F7F6CF462FE5
S11323604F70405D4A3318F0495D31FD405241934E
S113237002D0A9F7EACFB4E0A6959795879577950B
S11323806795BA95C9F700976105710508959B0192
S1132390AC010A2E06945795479537952795BA951B
S11323A0C9F7620F731F841F951FA01D0895F99923
S11323B0FECF92BD81BDF89A992780B50895262F46
S11323C0F999FECF1FBA92BD81BD20BD0FB6F89416
S11323D0FA9AF99A0FBE01960895052E97FB16F402
S11323E000940FD057FD05D06FDB07FC02D046F4F4
S11323F008C050954095309521953F4F4F4F5F4F02
S1132400089590958095709561957F4F8F4F9F4F5C
S113241008950FD0A59F900DB49F900DA49F800D9B
S1132420911D11240895B7FFF4CFF3DF821B930BA2
S11324300895A29FB001B39FC001A39F700D811D99
S11324401124911DB29F700D811D1124911D0895B9
S1072450F894FFCF2A
S113245400003002200001000000010000000153CC
S1132464636F72653A203000446972656374696FFE
S11324746E3A200050726573732073746172742011
S1132484533A2000486967682053636F72653A20A1
S113249400256400526573657474696E6700564957
S11324A443544F525900507265737320746F2072F1
S11324B46573746172740047616D65204F7665724B
S11324C40000040E1F0E0E0000000E0E1F0E04006A
S11324D40000040F1F0F04000000041E1F1E04004C
S10524E40000F2
S9030000FC
